{
  "address": "0x5FbDB2315678afecb367f032d93F642f64180aa3",
  "abi": [
    {
      "inputs": [],
      "stateMutability": "nonpayable",
      "type": "constructor"
    },
    {
      "inputs": [],
      "name": "ZamaProtocolUnsupported",
      "type": "error"
    },
    {
      "anonymous": false,
      "inputs": [
        {
          "indexed": true,
          "internalType": "uint256",
          "name": "imageId",
          "type": "uint256"
        },
        {
          "indexed": true,
          "internalType": "address",
          "name": "creator",
          "type": "address"
        },
        {
          "indexed": false,
          "internalType": "string",
          "name": "ipfsCID",
          "type": "string"
        },
        {
          "indexed": false,
          "internalType": "uint256",
          "name": "timestamp",
          "type": "uint256"
        }
      ],
      "name": "ImageUploaded",
      "type": "event"
    },
    {
      "anonymous": false,
      "inputs": [
        {
          "indexed": true,
          "internalType": "uint256",
          "name": "imageId",
          "type": "uint256"
        },
        {
          "indexed": true,
          "internalType": "address",
          "name": "rater",
          "type": "address"
        },
        {
          "indexed": false,
          "internalType": "uint256",
          "name": "timestamp",
          "type": "uint256"
        }
      ],
      "name": "RatingSubmitted",
      "type": "event"
    },
    {
      "inputs": [],
      "name": "confidentialProtocolId",
      "outputs": [
        {
          "internalType": "uint256",
          "name": "",
          "type": "uint256"
        }
      ],
      "stateMutability": "view",
      "type": "function"
    },
    {
      "inputs": [
        {
          "internalType": "uint256",
          "name": "imageId",
          "type": "uint256"
        }
      ],
      "name": "getEncryptedStats",
      "outputs": [
        {
          "internalType": "euint32",
          "name": "sum",
          "type": "bytes32"
        },
        {
          "internalType": "euint32",
          "name": "count",
          "type": "bytes32"
        }
      ],
      "stateMutability": "view",
      "type": "function"
    },
    {
      "inputs": [
        {
          "internalType": "uint256",
          "name": "imageId",
          "type": "uint256"
        }
      ],
      "name": "getImageInfo",
      "outputs": [
        {
          "internalType": "string",
          "name": "ipfsCID",
          "type": "string"
        },
        {
          "internalType": "address",
          "name": "creator",
          "type": "address"
        },
        {
          "internalType": "uint256",
          "name": "createdAt",
          "type": "uint256"
        }
      ],
      "stateMutability": "view",
      "type": "function"
    },
    {
      "inputs": [],
      "name": "getTotalImages",
      "outputs": [
        {
          "internalType": "uint256",
          "name": "",
          "type": "uint256"
        }
      ],
      "stateMutability": "view",
      "type": "function"
    },
    {
      "inputs": [
        {
          "internalType": "uint256",
          "name": "imageId",
          "type": "uint256"
        },
        {
          "internalType": "address",
          "name": "rater",
          "type": "address"
        }
      ],
      "name": "hasRated",
      "outputs": [
        {
          "internalType": "bool",
          "name": "",
          "type": "bool"
        }
      ],
      "stateMutability": "view",
      "type": "function"
    },
    {
      "inputs": [
        {
          "internalType": "uint256",
          "name": "imageId",
          "type": "uint256"
        }
      ],
      "name": "imageExists",
      "outputs": [
        {
          "internalType": "bool",
          "name": "",
          "type": "bool"
        }
      ],
      "stateMutability": "view",
      "type": "function"
    },
    {
      "inputs": [
        {
          "internalType": "uint256",
          "name": "imageId",
          "type": "uint256"
        },
        {
          "internalType": "externalEuint32",
          "name": "encryptedRating",
          "type": "bytes32"
        },
        {
          "internalType": "bytes",
          "name": "inputProof",
          "type": "bytes"
        }
      ],
      "name": "submitRating",
      "outputs": [],
      "stateMutability": "nonpayable",
      "type": "function"
    },
    {
      "inputs": [
        {
          "internalType": "string",
          "name": "ipfsCID",
          "type": "string"
        }
      ],
      "name": "uploadImage",
      "outputs": [
        {
          "internalType": "uint256",
          "name": "",
          "type": "uint256"
        }
      ],
      "stateMutability": "nonpayable",
      "type": "function"
    }
  ],
  "transactionHash": "0x8699a6ca0b906dae132f0056347b899f666d3b696db8262f5be50be99e002cd9",
  "args": [],
  "numDeployments": 1,
  "solcInputHash": "b17c946f92120ee6778440a275572a2c",
  "bytecode": "0x608060405234801561000f575f80fd5b506100c461001b6100cc565b80517f9e7b61f58c47dc699ac88507c4f5bb9f121c03808c5676a8078fe583e464970080546001600160a01b03199081166001600160a01b039384161790915560208301517f9e7b61f58c47dc699ac88507c4f5bb9f121c03808c5676a8078fe583e46497018054831691841691909117905560408301517f9e7b61f58c47dc699ac88507c4f5bb9f121c03808c5676a8078fe583e46497028054909216921691909117905550565b5f805561023b565b604080516060810182525f808252602082018190529181019190915246600103610125575060408051606080820183525f8083526020808401829052928401819052835191820184528082529181018290529182015290565b4662aa36a7036101a4575060408051606080820183525f8083526020808401829052928401528251908101835273f0ffdc93b7e186bc2f8cb3daa75d86d1930a433d81527392c920834ec8941d2c77d188936e1f7a6f49c1279181019190915273be0e383937d564d7ff0bc3b46c51f0bf8d5c311a9181019190915290565b46617a6903610222575060408051606080820183525f808352602080840182905292840152825190810183527350157cffd6bbfa2dece204a89ec419c23ef5755d815273e3a9105a3a932253a70f126eb1e3b589c643dd249181019190915273be0e383937d564d7ff0bc3b46c51f0bf8d5c311a9181019190915290565b6040516373cac13b60e01b815260040160405180910390fd5b610f9a806102485f395ff3fe608060405234801561000f575f80fd5b5060043610610085575f3560e01c80639a4661f8116100585780639a4661f8146101235780639f2deb4c1461012a578063e740c8a014610152578063f0366c4514610165575f80fd5b8063251a1f4614610089578063764544861461009e5780638927b030146100eb57806395f2240514610101575b5f80fd5b61009c610097366004610b89565b61018a565b005b6100d66100ac366004610bd8565b5f9182526002602090815260408084206001600160a01b0393909316845291905290205460ff1690565b60405190151581526020015b60405180910390f35b6100f361036a565b6040519081526020016100e2565b61011461010f366004610c11565b610378565b6040516100e293929190610c6b565b5f546100f3565b61013d610138366004610c11565b6104bf565b604080519283526020830191909152016100e2565b6100f3610160366004610c98565b6105ff565b6100d6610173366004610c11565b5f9081526001602052604090206006015460ff1690565b5f8481526001602052604090206006015460ff166101c35760405162461bcd60e51b81526004016101ba90610cd7565b60405180910390fd5b5f84815260026020908152604080832033845290915290205460ff161561022c5760405162461bcd60e51b815260206004820152601860248201527f416c7265616479207261746564207468697320696d616765000000000000000060448201526064016101ba565b5f8481526001602090815260408083208151601f8601849004840281018401909252848252929161027891879187908790819084018382808284375f920191909152506107c292505050565b90506102888260030154826107d6565b60038301555f6102986001610804565b90506102a88360040154826107d6565b60048401555f878152600260208181526040808420338552909152909120805460ff191660011790556003840154908401546102ed91906001600160a01b031661081c565b506102fc83600301543061081c565b506004830154600284015461031a91906001600160a01b031661081c565b5061032983600401543061081c565b50604051428152339088907f333bebed08daecca8362db8fead5f4322e8cdeaf9d801dd198819482f3c7c05b9060200160405180910390a350505050505050565b5f61037361082e565b905090565b5f8181526001602052604081206006015460609190819060ff166103ae5760405162461bcd60e51b81526004016101ba90610cd7565b5f848152600160208181526040808420815160e081019092528054825292830180549193928401916103df90610d05565b80601f016020809104026020016040519081016040528092919081815260200182805461040b90610d05565b80156104565780601f1061042d57610100808354040283529160200191610456565b820191905f5260205f20905b81548152906001019060200180831161043957829003601f168201915b505050918352505060028201546001600160a01b03166020808301919091526003830154604080840191909152600484015460608401526005840154608084015260069093015460ff16151560a092830152830151918301519201519097919650945092505050565b5f81815260016020526040812060060154819060ff166104f15760405162461bcd60e51b81526004016101ba90610cd7565b5f838152600160208181526040808420815160e0810190925280548252928301805491939284019161052290610d05565b80601f016020809104026020016040519081016040528092919081815260200182805461054e90610d05565b80156105995780601f1061057057610100808354040283529160200191610599565b820191905f5260205f20905b81548152906001019060200180831161057c57829003601f168201915b505050918352505060028201546001600160a01b03166020820152600382015460408201526004820154606080830191909152600583015460808084019190915260069093015460ff16151560a090920191909152820151910151909590945092505050565b5f8161064d5760405162461bcd60e51b815260206004820152601860248201527f49504653204349442063616e6e6f7420626520656d707479000000000000000060448201526064016101ba565b5f80549081908061065d83610d3d565b91905055505f61066c5f610804565b90506040518060e0016040528083815260200186868080601f0160208091040260200160405190810160405280939291908181526020018383808284375f920182905250938552505033602080850191909152604080850187905260608501879052426080860152600160a0909501859052878452848252909220845181559184015191928301916106ff915082610dc1565b5060408201516002820180546001600160a01b0319166001600160a01b03909216919091179055606082015160038201556080820151600482015560a0820151600582015560c0909101516006909101805460ff1916911515919091179055610768813361081c565b50610773813061081c565b50336001600160a01b0316827f331294c1eb528ab98e44448e58e540ecaa48cf0829a565e24f7c18ac0bd223188787426040516107b293929190610e81565b60405180910390a3509392505050565b5f6107cf83836004610862565b9392505050565b5f826107e8576107e55f610804565b92505b816107f9576107f65f610804565b91505b6107cf83835f61096f565b5f6108168263ffffffff166004610a24565b92915050565b5f6108278383610ace565b5090919050565b5f4660010361083d5750600190565b4662aa36a70361084e575061271190565b46617a690361085d57505f1990565b505f90565b7f9e7b61f58c47dc699ac88507c4f5bb9f121c03808c5676a8078fe583e46497015460405163045fc19560e11b81525f915f80516020610f45833981519152916001600160a01b03909116906308bf832a906108c8908890339089908990600401610ed8565b6020604051808303815f875af11580156108e4573d5f803e3d5ffd5b505050506040513d601f19601f820116820180604052508101906109089190610f19565b8154604051630f8e573b60e21b8152600481018390523360248201529193506001600160a01b031690633e395cec906044015f604051808303815f87803b158015610951575f80fd5b505af1158015610963573d5f803e3d5ffd5b50505050509392505050565b5f8082156109825750600160f81b610985565b505f5b5f5f80516020610f45833981519152600181015460405163022f65e760e31b815260048101899052602481018890526001600160f81b0319851660448201529192506001600160a01b03169063117b2f38906064016020604051808303815f875af11580156109f6573d5f803e3d5ffd5b505050506040513d601f19601f82011682018060405250810190610a1a9190610f19565b9695505050505050565b7f9e7b61f58c47dc699ac88507c4f5bb9f121c03808c5676a8078fe583e464970154604051639cd07acb60e01b81525f915f80516020610f45833981519152916001600160a01b0390911690639cd07acb90610a869087908790600401610f30565b6020604051808303815f875af1158015610aa2573d5f803e3d5ffd5b505050506040513d601f19601f82011682018060405250810190610ac69190610f19565b949350505050565b5f5f80516020610f458339815191528054604051635ca4b5b160e11b8152600481018690526001600160a01b03858116602483015292935091169063b9496b62906044015f604051808303815f87803b158015610b29575f80fd5b505af1158015610b3b573d5f803e3d5ffd5b50505050505050565b5f8083601f840112610b54575f80fd5b50813567ffffffffffffffff811115610b6b575f80fd5b602083019150836020828501011115610b82575f80fd5b9250929050565b5f805f8060608587031215610b9c575f80fd5b8435935060208501359250604085013567ffffffffffffffff811115610bc0575f80fd5b610bcc87828801610b44565b95989497509550505050565b5f8060408385031215610be9575f80fd5b8235915060208301356001600160a01b0381168114610c06575f80fd5b809150509250929050565b5f60208284031215610c21575f80fd5b5035919050565b5f81518084525f5b81811015610c4c57602081850181015186830182015201610c30565b505f602082860101526020601f19601f83011685010191505092915050565b606081525f610c7d6060830186610c28565b6001600160a01b039490941660208301525060400152919050565b5f8060208385031215610ca9575f80fd5b823567ffffffffffffffff811115610cbf575f80fd5b610ccb85828601610b44565b90969095509350505050565b602080825260149082015273125b5859d948191bd95cc81b9bdd08195e1a5cdd60621b604082015260600190565b600181811c90821680610d1957607f821691505b602082108103610d3757634e487b7160e01b5f52602260045260245ffd5b50919050565b5f60018201610d5a57634e487b7160e01b5f52601160045260245ffd5b5060010190565b634e487b7160e01b5f52604160045260245ffd5b601f821115610dbc57805f5260205f20601f840160051c81016020851015610d9a5750805b601f840160051c820191505b81811015610db9575f8155600101610da6565b50505b505050565b815167ffffffffffffffff811115610ddb57610ddb610d61565b610def81610de98454610d05565b84610d75565b602080601f831160018114610e22575f8415610e0b5750858301515b5f19600386901b1c1916600185901b178555610e79565b5f85815260208120601f198616915b82811015610e5057888601518255948401946001909101908401610e31565b5085821015610e6d57878501515f19600388901b60f8161c191681555b505060018460011b0185555b505050505050565b60408152826040820152828460608301375f606084830101525f6060601f19601f8601168301019050826020830152949350505050565b60548110610ed457634e487b7160e01b5f52602160045260245ffd5b9052565b8481526001600160a01b03841660208201526080604082018190525f90610f0190830185610c28565b9050610f106060830184610eb8565b95945050505050565b5f60208284031215610f29575f80fd5b5051919050565b828152604081016107cf6020830184610eb856fe9e7b61f58c47dc699ac88507c4f5bb9f121c03808c5676a8078fe583e4649700a26469706673582212200acba3c1243630485282695c3ce13086e2558ad092aba536c39d6bcb7293530364736f6c63430008180033",
  "devdoc": {
    "details": "Users upload images (IPFS CID), others rate them (1-5 stars encrypted)Only image creator can decrypt the total ratings",
    "kind": "dev",
    "methods": {
      "getEncryptedStats(uint256)": {
        "params": {
          "imageId": "The image ID to query"
        },
        "returns": {
          "count": "Encrypted count of ratings",
          "sum": "Encrypted sum of ratings"
        }
      },
      "getImageInfo(uint256)": {
        "params": {
          "imageId": "The image ID to query"
        },
        "returns": {
          "createdAt": "Timestamp when created",
          "creator": "Address of the creator",
          "ipfsCID": "IPFS CID of the image"
        }
      },
      "getTotalImages()": {
        "returns": {
          "_0": "Total count of images"
        }
      },
      "hasRated(uint256,address)": {
        "params": {
          "imageId": "The image ID",
          "rater": "The address to check"
        },
        "returns": {
          "_0": "True if the address has rated, false otherwise"
        }
      },
      "imageExists(uint256)": {
        "params": {
          "imageId": "The image ID to check"
        },
        "returns": {
          "_0": "True if exists, false otherwise"
        }
      },
      "submitRating(uint256,bytes32,bytes)": {
        "params": {
          "encryptedRating": "The encrypted rating (externalEuint32)",
          "imageId": "The ID of the image to rate",
          "inputProof": "The proof for the encrypted input"
        }
      },
      "uploadImage(string)": {
        "params": {
          "ipfsCID": "The IPFS CID of the uploaded image"
        },
        "returns": {
          "_0": "imageId The ID of the newly created image"
        }
      }
    },
    "title": "ImageRating",
    "version": 1
  },
  "userdoc": {
    "errors": {
      "ZamaProtocolUnsupported()": [
        {
          "notice": "Returned if the Zama protocol is not supported on the current chain"
        }
      ]
    },
    "kind": "user",
    "methods": {
      "getEncryptedStats(uint256)": {
        "notice": "Get encrypted rating statistics (for creator to decrypt)"
      },
      "getImageInfo(uint256)": {
        "notice": "Get image information (public data)"
      },
      "getTotalImages()": {
        "notice": "Get total number of images uploaded"
      },
      "hasRated(uint256,address)": {
        "notice": "Check if an address has rated a specific image"
      },
      "imageExists(uint256)": {
        "notice": "Check if an image exists"
      },
      "submitRating(uint256,bytes32,bytes)": {
        "notice": "Submit an encrypted rating for an image (1-5 stars)"
      },
      "uploadImage(string)": {
        "notice": "Upload a new image (store IPFS CID on-chain)"
      }
    },
    "notice": "Decentralized image rating system with FHE encrypted ratings",
    "version": 1
  },
  "storageLayout": {
    "storage": [
      {
        "astId": 39184,
        "contract": "contracts/ImageRating.sol:ImageRating",
        "label": "_imageIdCounter",
        "offset": 0,
        "slot": "0",
        "type": "t_uint256"
      },
      {
        "astId": 39189,
        "contract": "contracts/ImageRating.sol:ImageRating",
        "label": "_images",
        "offset": 0,
        "slot": "1",
        "type": "t_mapping(t_uint256,t_struct(Image)39212_storage)"
      },
      {
        "astId": 39195,
        "contract": "contracts/ImageRating.sol:ImageRating",
        "label": "_hasRated",
        "offset": 0,
        "slot": "2",
        "type": "t_mapping(t_uint256,t_mapping(t_address,t_bool))"
      }
    ],
    "types": {
      "t_address": {
        "encoding": "inplace",
        "label": "address",
        "numberOfBytes": "20"
      },
      "t_bool": {
        "encoding": "inplace",
        "label": "bool",
        "numberOfBytes": "1"
      },
      "t_mapping(t_address,t_bool)": {
        "encoding": "mapping",
        "key": "t_address",
        "label": "mapping(address => bool)",
        "numberOfBytes": "32",
        "value": "t_bool"
      },
      "t_mapping(t_uint256,t_mapping(t_address,t_bool))": {
        "encoding": "mapping",
        "key": "t_uint256",
        "label": "mapping(uint256 => mapping(address => bool))",
        "numberOfBytes": "32",
        "value": "t_mapping(t_address,t_bool)"
      },
      "t_mapping(t_uint256,t_struct(Image)39212_storage)": {
        "encoding": "mapping",
        "key": "t_uint256",
        "label": "mapping(uint256 => struct ImageRating.Image)",
        "numberOfBytes": "32",
        "value": "t_struct(Image)39212_storage"
      },
      "t_string_storage": {
        "encoding": "bytes",
        "label": "string",
        "numberOfBytes": "32"
      },
      "t_struct(Image)39212_storage": {
        "encoding": "inplace",
        "label": "struct ImageRating.Image",
        "members": [
          {
            "astId": 39197,
            "contract": "contracts/ImageRating.sol:ImageRating",
            "label": "id",
            "offset": 0,
            "slot": "0",
            "type": "t_uint256"
          },
          {
            "astId": 39199,
            "contract": "contracts/ImageRating.sol:ImageRating",
            "label": "ipfsCID",
            "offset": 0,
            "slot": "1",
            "type": "t_string_storage"
          },
          {
            "astId": 39201,
            "contract": "contracts/ImageRating.sol:ImageRating",
            "label": "creator",
            "offset": 0,
            "slot": "2",
            "type": "t_address"
          },
          {
            "astId": 39204,
            "contract": "contracts/ImageRating.sol:ImageRating",
            "label": "encryptedSum",
            "offset": 0,
            "slot": "3",
            "type": "t_userDefinedValueType(euint32)39575"
          },
          {
            "astId": 39207,
            "contract": "contracts/ImageRating.sol:ImageRating",
            "label": "encryptedCount",
            "offset": 0,
            "slot": "4",
            "type": "t_userDefinedValueType(euint32)39575"
          },
          {
            "astId": 39209,
            "contract": "contracts/ImageRating.sol:ImageRating",
            "label": "createdAt",
            "offset": 0,
            "slot": "5",
            "type": "t_uint256"
          },
          {
            "astId": 39211,
            "contract": "contracts/ImageRating.sol:ImageRating",
            "label": "exists",
            "offset": 0,
            "slot": "6",
            "type": "t_bool"
          }
        ],
        "numberOfBytes": "224"
      },
      "t_uint256": {
        "encoding": "inplace",
        "label": "uint256",
        "numberOfBytes": "32"
      },
      "t_userDefinedValueType(euint32)39575": {
        "encoding": "inplace",
        "label": "euint32",
        "numberOfBytes": "32"
      }
    }
  }
}